{
  "abi": [
    {
      "inputs": [],
      "stateMutability": "nonpayable",
      "type": "constructor"
    },
    {
      "inputs": [
        {
          "internalType": "uint256",
          "name": "_value",
          "type": "uint256"
        },
        {
          "internalType": "uint256",
          "name": "_valuetoadd",
          "type": "uint256"
        }
      ],
      "name": "Sum",
      "outputs": [],
      "stateMutability": "nonpayable",
      "type": "function"
    },
    {
      "inputs": [],
      "name": "owner",
      "outputs": [
        {
          "internalType": "address",
          "name": "",
          "type": "address"
        }
      ],
      "stateMutability": "view",
      "type": "function"
    },
    {
      "inputs": [],
      "name": "retrive",
      "outputs": [
        {
          "internalType": "uint256",
          "name": "",
          "type": "uint256"
        }
      ],
      "stateMutability": "view",
      "type": "function"
    },
    {
      "inputs": [],
      "name": "value",
      "outputs": [
        {
          "internalType": "uint256",
          "name": "",
          "type": "uint256"
        }
      ],
      "stateMutability": "view",
      "type": "function"
    },
    {
      "inputs": [],
      "name": "valueAfterSum",
      "outputs": [
        {
          "internalType": "uint256",
          "name": "",
          "type": "uint256"
        }
      ],
      "stateMutability": "view",
      "type": "function"
    },
    {
      "inputs": [],
      "name": "valuetoAdd",
      "outputs": [
        {
          "internalType": "uint256",
          "name": "",
          "type": "uint256"
        }
      ],
      "stateMutability": "view",
      "type": "function"
    },
    {
      "inputs": [
        {
          "internalType": "uint256",
          "name": "",
          "type": "uint256"
        }
      ],
      "name": "valuetoValueAfterSum",
      "outputs": [
        {
          "internalType": "uint256",
          "name": "",
          "type": "uint256"
        }
      ],
      "stateMutability": "view",
      "type": "function"
    }
  ],
  "bytecode": "608060405234801561001057600080fd5b50600380546001600160a01b0319163317905560008055610208806100366000396000f3fe608060405234801561001057600080fd5b506004361061007d5760003560e01c80633fa4f2451161005b5780633fa4f245146100d35780638da5cb5b146100dc578063951714e714610107578063a6b7fc5b1461011057600080fd5b8063154b76581461008257806317ef4e4b146100b55780632f69ca45146100ca575b600080fd5b6100a2610090366004610171565b60046020526000908152604090205481565b6040519081526020015b60405180910390f35b6100c86100c336600461018a565b610118565b005b6100a260025481565b6100a260005481565b6003546100ef906001600160a01b031681565b6040516001600160a01b0390911681526020016100ac565b6100a260015481565b6002546100a2565b6003546001600160a01b0316331461012f57600080fd5b8160008082825461014091906101ac565b909155505060018190556000546101589082906101ac565b6002819055600080548152600460205260409020555050565b60006020828403121561018357600080fd5b5035919050565b6000806040838503121561019d57600080fd5b50508035926020909101359150565b600082198211156101cd57634e487b7160e01b600052601160045260246000fd5b50019056fea2646970667358221220f64d1674081ed7ce06ea573f95a062ae92f1fcbe73ab331181f334245128f4dd64736f6c63430008070033",
  "bytecodeSha1": "cecceedb5f3c89ea7430504849b7f0745585b978",
  "compiler": {
    "evm_version": "istanbul",
    "optimizer": {
      "enabled": true,
      "runs": 200
    },
    "version": "0.8.7+commit.e28d00a7"
  },
  "contractName": "SumContract",
  "language": "Solidity",
  "natspec": {
    "kind": "dev",
    "methods": {},
    "version": 1
  },
  "opcodes": "PUSH1 0x80 PUSH1 0x40 MSTORE CALLVALUE DUP1 ISZERO PUSH2 0x10 JUMPI PUSH1 0x0 DUP1 REVERT JUMPDEST POP PUSH1 0x4 CALLDATASIZE LT PUSH2 0x7D JUMPI PUSH1 0x0 CALLDATALOAD PUSH1 0xE0 SHR DUP1 PUSH4 0x3FA4F245 GT PUSH2 0x5B JUMPI DUP1 PUSH4 0x3FA4F245 EQ PUSH2 0xD3 JUMPI DUP1 PUSH4 0x8DA5CB5B EQ PUSH2 0xDC JUMPI DUP1 PUSH4 0x951714E7 EQ PUSH2 0x107 JUMPI DUP1 PUSH4 0xA6B7FC5B EQ PUSH2 0x110 JUMPI PUSH1 0x0 DUP1 REVERT JUMPDEST DUP1 PUSH4 0x154B7658 EQ PUSH2 0x82 JUMPI DUP1 PUSH4 0x17EF4E4B EQ PUSH2 0xB5 JUMPI DUP1 PUSH4 0x2F69CA45 EQ PUSH2 0xCA JUMPI JUMPDEST PUSH1 0x0 DUP1 REVERT JUMPDEST PUSH2 0xA2 PUSH2 0x90 CALLDATASIZE PUSH1 0x4 PUSH2 0x171 JUMP JUMPDEST PUSH1 0x4 PUSH1 0x20 MSTORE PUSH1 0x0 SWAP1 DUP2 MSTORE PUSH1 0x40 SWAP1 KECCAK256 SLOAD DUP2 JUMP JUMPDEST PUSH1 0x40 MLOAD SWAP1 DUP2 MSTORE PUSH1 0x20 ADD JUMPDEST PUSH1 0x40 MLOAD DUP1 SWAP2 SUB SWAP1 RETURN JUMPDEST PUSH2 0xC8 PUSH2 0xC3 CALLDATASIZE PUSH1 0x4 PUSH2 0x18A JUMP JUMPDEST PUSH2 0x118 JUMP JUMPDEST STOP JUMPDEST PUSH2 0xA2 PUSH1 0x2 SLOAD DUP2 JUMP JUMPDEST PUSH2 0xA2 PUSH1 0x0 SLOAD DUP2 JUMP JUMPDEST PUSH1 0x3 SLOAD PUSH2 0xEF SWAP1 PUSH1 0x1 PUSH1 0x1 PUSH1 0xA0 SHL SUB AND DUP2 JUMP JUMPDEST PUSH1 0x40 MLOAD PUSH1 0x1 PUSH1 0x1 PUSH1 0xA0 SHL SUB SWAP1 SWAP2 AND DUP2 MSTORE PUSH1 0x20 ADD PUSH2 0xAC JUMP JUMPDEST PUSH2 0xA2 PUSH1 0x1 SLOAD DUP2 JUMP JUMPDEST PUSH1 0x2 SLOAD PUSH2 0xA2 JUMP JUMPDEST PUSH1 0x3 SLOAD PUSH1 0x1 PUSH1 0x1 PUSH1 0xA0 SHL SUB AND CALLER EQ PUSH2 0x12F JUMPI PUSH1 0x0 DUP1 REVERT JUMPDEST DUP2 PUSH1 0x0 DUP1 DUP3 DUP3 SLOAD PUSH2 0x140 SWAP2 SWAP1 PUSH2 0x1AC JUMP JUMPDEST SWAP1 SWAP2 SSTORE POP POP PUSH1 0x1 DUP2 SWAP1 SSTORE PUSH1 0x0 SLOAD PUSH2 0x158 SWAP1 DUP3 SWAP1 PUSH2 0x1AC JUMP JUMPDEST PUSH1 0x2 DUP2 SWAP1 SSTORE PUSH1 0x0 DUP1 SLOAD DUP2 MSTORE PUSH1 0x4 PUSH1 0x20 MSTORE PUSH1 0x40 SWAP1 KECCAK256 SSTORE POP POP JUMP JUMPDEST PUSH1 0x0 PUSH1 0x20 DUP3 DUP5 SUB SLT ISZERO PUSH2 0x183 JUMPI PUSH1 0x0 DUP1 REVERT JUMPDEST POP CALLDATALOAD SWAP2 SWAP1 POP JUMP JUMPDEST PUSH1 0x0 DUP1 PUSH1 0x40 DUP4 DUP6 SUB SLT ISZERO PUSH2 0x19D JUMPI PUSH1 0x0 DUP1 REVERT JUMPDEST POP POP DUP1 CALLDATALOAD SWAP3 PUSH1 0x20 SWAP1 SWAP2 ADD CALLDATALOAD SWAP2 POP JUMP JUMPDEST PUSH1 0x0 DUP3 NOT DUP3 GT ISZERO PUSH2 0x1CD JUMPI PUSH4 0x4E487B71 PUSH1 0xE0 SHL PUSH1 0x0 MSTORE PUSH1 0x11 PUSH1 0x4 MSTORE PUSH1 0x24 PUSH1 0x0 REVERT JUMPDEST POP ADD SWAP1 JUMP INVALID LOG2 PUSH5 0x6970667358 0x22 SLT KECCAK256 0xF6 0x4D AND PUSH21 0x81ED7CE06EA573F95A062AE92F1FCBE73AB331181 RETURN CALLVALUE 0x24 MLOAD 0x28 DELEGATECALL 0xDD PUSH5 0x736F6C6343 STOP ADDMOD SMOD STOP CALLER ",
  "sha1": "bd826f4c3bce5ade2305cfdde90a38d3c312da27",
  "source": "pragma solidity ^0.8.6;\n\ncontract SumContract {\n    uint256 public value;\n    uint256 public valuetoAdd;\n    uint256 public valueAfterSum;\n    address public owner;\n    mapping(uint256 => uint256) public valuetoValueAfterSum;\n\n    constructor() {\n        owner = msg.sender;\n        value = 0;\n    }\n\n    modifier OnlyOwner() {\n        require(msg.sender == owner);\n        _;\n    }\n\n    function Sum(uint256 _value, uint256 _valuetoadd) public OnlyOwner {\n        value += _value;\n        valuetoAdd = _valuetoadd;\n        valueAfterSum = value + valuetoAdd;\n        valuetoValueAfterSum[value] = valueAfterSum;\n    }\n\n    function retrive() public view returns (uint256) {\n        return valueAfterSum;\n    }\n}\n",
  "sourcePath": "contracts/SumContract.sol",
  "type": "contract"
}